:020000040000fa
:10000000f8ff0320250400004f0600004f06000003
:100010004f0600004f0600004f06000000000000e1
:100020000000000000000000000000004f0600007b
:100030004f060000000000004f0600004f060000c1
:100040004f0600004f0600004f0600004f0600005c
:100050004f0600004f0600004f0600004f0600004c
:100060004f0600004f0600004f0600004f0600003c
:100070004f0600004f0600004f0600004f0600002c
:100080004f0600004f0600004f0600004f0600001c
:100090004f0600004f0600004f0600004f0600000c
:1000a0004f0600004f0600004f060000ed03000061
:1000b0004f0600004f0600004f0600004f060000ec
:1000c0004f0600004f0600004f0600004f060000dc
:1000d0004f0600004f0600004f0600004f060000cc
:1000e0004f0600004f060000000000000000000066
:1000f000000000004f0600004f0600004f06000001
:100100004f0600004f0600004f0600004f0600009b
:100110004f0600004f0600004f0600004f0600008b
:100120004f0600004f0600004f0600004f0600007b
:100130004f0600004f0600004f0600004f0600006b
:100140004f0600004f0600004f0600004f0600005b
:100150004f0600004f0600000000000000000000f5
:10016000000000000000000000000000000000008f
:1001700000000000000000004f0600004f060000d5
:100180004f0600004f0600004f0600004f0600001b
:10019000000000004f0600004f0600004f06000060
:1001a0004f0600004f0600004f0600004f060000fb
:1001b0004f0600004f0600004f0600004f060000eb
:1001c0004f0600004f0600004f0600004f060000db
:1001d0004f0600004f0600004f0600004f060000cb
:1001e0004f0600004f0600004f0600004f060000bb
:1001f0004f0600004f0600004f0600004f060000ab
:100200004f06000000000000000000004f06000044
:100210004f0600004f0600004f0600004f0600008a
:100220004f0600004f0600004f0600004f0600007a
:100230004f0600004f0600004f0600004f0600006a
:100240004f0600004f0600004f0600004f0600005a
:100250004f0600004f0600004f0600004f0600004a
:020000040000fa
:10026000f8b500bff8bc08bc9e467047b505000055
:10027000f8b500bff8bc08bc9e4670479105000069
:020000040000fa
:1002800080b483b000af0346fb80b7f90630002b83
:100290000bdbfb8803f01f020749b7f906305b0947
:1002a000012000fa02f241f8232000bf0c37bd46be
:1002b0005df8047b704700bf00e100e080b483b0cc
:1002c00000af03463960fb80b7f90630002b0adb2c
:1002d0003b68dab20c49b7f906305201d2b20b448e
:1002e00083f800230ae03b68dab20849fb8803f090
:1002f0000f03043b5201d2b20b441a7600bf0c37f5
:10030000bd465df8047b704700e100e000ed00e0d1
:1003100080b500af03211b20fff7d0ff1b20fff7a4
:10032000afffbff35f8f62b600bf80bd80b400af88
:10033000114b1b6a104a43f4417343f002031362ea
:1003400000bf0d4b5b6803f00403002bf9d10a4b8f
:10035000d3f89030084a43f04003c2f8903000bf11
:10036000054bd3f8903003f04003002bf8d000bfca
:10037000bd465df8047b7047001c004080b400afb0
:100380000c4b1b6a0b4a43f020431362094b1b6b57
:10039000084a43f400431363064b1b78dbb2054a5b
:1003a00043f00203dbb2137000bfbd465df8047b6f
:1003b000704700bf0028004080b400af0a4b93f89c
:1003c0004f30dbb2084a43f00703dbb282f84f300c
:1003d000054b1b68044a43f48043136000bfbd46cd
:1003e0005df8047b704700bf0080004180b400af1f
:1003f000054bdb69044a43f48043d36100bfbd462b
:100400005df8047b704700bf0080004180b500affd
:10041000fff7d2fffff78afffff7b0fffff778ff84
:04042000fee700bf34
:020000040000fa
:100424001d4b03b198471d4b03b19847eff310835d
:10043400b3fa83f35b09019372b6bff35f8f184b72
:1004440000221a700199174a136843f47003136069
:10045400bff34f8fbff36f8f29b1114b01221a7075
:10046400bff35f8f62b600f0cdf800f0aff80e4b2b
:1004740023f07f030d4a93600d4b98470d4b03b156
:1004840098470d4b03b1984700210846fff7bcff7e
:100494000a4b03b19847fee700000000000000008b
:1004a4007400002088ed00e00000000000ed00e092
:1004b40035050000000000000000000000000000fe
:020000040000fa
:1004c400780000200400000001000000000000008b
:1004d400500000201c0000000000000074000020f8
:1004e40001000000000000006c0000200400000077
:1004f4000000000000000020500000000000000088
:100504007000002004000000000000007c000020b7
:1005140004000000010000000000000000000000d2
:1005240000000000666666666666666666666666ff
:020000040000fa
:100534000e4a38b5002313600d4a0e4c13600e4a60
:100544000e4d13600e4a13600e4a13600e4a536236
:1005540013610123936000f08ff800f08df8ac4232
:1005640000d338bd54f8043b9847f8e770000020e6
:100574000c0000206c020000080000207002000043
:0c058400000000200400002010000020f7
:020000040000fa
:1005900010b5054c227832b9044b13b10448aff3bf
:1005a00000800123237010bd5000002000000000d7
:1005b0000000000008b5034b1bb103490348aff32b
:1005c000008008bd00000000540000200000000072
:020000040000fa
:1005d00070b50b480b4d4ff6ff76016821b94368a3
:1005e00013b900f04af870bd83684268334000f1e7
:1005f0000c0455f823302046984704eb8000ece7c4
:08060000c404000050060000d4
:020000040000fa
:10060800084b9a6822f001029a60db6813f0010f28
:1006180006d1044b20225a609a6842f001029a607f
:08062800704700bf00600041b3
:020000040000fa
:1006300010b50023934206d113f0030018bf012028
:0e06400000eb930010bdc45ccc540133f2e714
:020000040000fa
:02064e00fee7c5
:020000040000fa
:1006500065060000310600007706000077060000fe
:040660007706000019
:020000040000fa
:100664000a440023914201d10020704701f8013b64
:02067400f8e7a5
:020000040000fa
:0406760000207047a9
:020000040000fa
:02067a007047c7
:020000040000fa
:02067c007047c5
:00000001FF
