:020000040000fa
:10000000f8ff0320410600006b0800006b080000a9
:100010006b0800006b0800006b0800000000000087
:100020000000000000000000000000006b0800005d
:100030006b080000000000006b0800006b08000067
:100040006b0800006b0800006b0800006b080000e4
:100050006b0800006b0800006b0800006b080000d4
:100060006b0800006b0800006b0800006b080000c4
:100070006b0800006b0800006b0800006b080000b4
:100080006b0800006b0800006b0800006b080000a4
:100090006b0800006b0800006b0800006b08000094
:1000a0006b0800006b0800006b080000950500005d
:1000b0006b0800006b0800006b0800006b08000074
:1000c0006b0800006b0800006b0800006b08000064
:1000d0006b0800006b0800006b0800006b08000054
:1000e0006b0800006b08000000000000000000002a
:1000f000000000006b0800006b0800006b080000a7
:100100006b0800006b0800006b0800006b08000023
:100110006b0800006b0800006b0800006b08000013
:100120006b0800006b0800006b0800006b08000003
:100130006b0800006b0800006b0800006b080000f3
:100140006b0800006b0800006b0800006b080000e3
:100150006b0800006b0800000000000000000000b9
:10016000000000000000000000000000000000008f
:1001700000000000000000006b0800006b08000099
:100180006b0800006b0800006b0800006b080000a3
:10019000000000006b0800006b0800006b08000006
:1001a0006b0800006b0800006b0800006b08000083
:1001b0006b0800006b0800006b0800006b08000073
:1001c0006b0800006b0800006b0800006b08000063
:1001d0006b0800006b0800006b0800006b08000053
:1001e0006b0800006b0800006b0800006b08000043
:1001f0006b0800006b0800006b0800006b08000033
:100200006b08000000000000000000006b08000008
:100210006b0800006b0800006b0800006b08000012
:100220006b0800006b0800006b0800006b08000002
:100230006b0800006b0800006b0800006b080000f2
:100240006b0800006b0800006b0800006b080000e2
:100250006b0800006b0800006b0800006b080000d2
:020000040000fa
:10026000f8b500bff8bc08bc9e467047d107000037
:10027000f8b500bff8bc08bc9e467047ad0700004b
:020000040000fa
:1002800080b483b000af0346fb80b7f90630002b83
:100290000bdbfb8803f01f020749b7f906305b0947
:1002a000012000fa02f241f8232000bf0c37bd46be
:1002b0005df8047b704700bf00e100e080b483b0cc
:1002c00000af03463960fb80b7f90630002b0adb2c
:1002d0003b68dab20c49b7f906305201d2b20b448e
:1002e00083f800230ae03b68dab20849fb8803f090
:1002f0000f03043b5201d2b20b441a7600bf0c37f5
:10030000bd465df8047b704700e100e000ed00e0d1
:1003100080b483b000af786000e000bf7b685a1ef5
:100320007a60002bf9d100bf0c37bd465df8047b25
:10033000704780b400af0d4bdb690c4a23f0060315
:10034000d3610a4b01221a74084bdb69074a43f058
:100350000603d36100bf054bdb6903f00603062be0
:10036000f9d100bfbd465df8047b70470014004022
:1003700080b483b000af114b9a6a1049104b1343fd
:100380008b620e4b93f82030dbb20c4a43f0010332
:10039000dbb282f8203000bf084b1b6903f4807386
:1003a000b3f5807ff8d1054b5b6a0023fb7100bf7a
:1003b0000c37bd465df8047b704700bf001000405d
:1003c000b905404080b400af114b00229a63104b36
:1003d00060225a6300bf0e4bdb6b03f00403042b57
:1003e000f9d00b4b022283f8302000bf084bdb6ba7
:1003f00003f00203022bf9d000bf054b1b6c03f086
:100400000303032bf9d100bfbd465df8047b7047a1
:100410000010004080b400af104b1a6a0f49104b17
:1004200013430b6200bf0d4b5b6803f00403042b06
:10043000f9d00a4bd3f89030084a43f04003c2f891
:10044000903000bf054bd3f8903003f04003402bb1
:10045000f8d100bfbd465df8047b7047001c00402a
:100460000701010080b400af114b5b6a104a43f4ee
:10047000401343f48373536200bf0d4b5b6803f07a
:100480000803082bf9d00a4bd3f88430084a43f00c
:100490004103c2f8843000bf054bd3f8843003f029
:1004a0004003402bf8d100bfbd465df8047b704788
:1004b000001c004080b400af114b9b6a104a43f40b
:1004c000803343f48273936200bf0d4b5b6803f08b
:1004d0001003102bf9d00a4bd3f88030084a43f0b0
:1004e0004203c2f8803000bf054bd3f8803003f0e0
:1004f0004003402bf8d100bfbd465df8047b704738
:10050000001c004080b500afbff35f8f62b60321cf
:100510001b20fff7d3fe1b20fff7b2fe00bf80bdfc
:1005200080b400af1a4b1b78dbb2194a43f00103c9
:10053000dbb2137000bf164b5b6803f00103012ba5
:10054000f9d0134b1b6a124a43f020431362104b3d
:100550001b6b0f4a43f4004313630d4b1b690c4a9a
:1005600043f4004313610a4b1b78dbb2084a43f0a3
:100570000203dbb2137000bf054b5b6803f002039c
:10058000022bf9d000bfbd465df8047b704700bf69
:100590000028004080b400af074b5b69064a43f473
:1005a00000435361054b4ff48042da6100bfbd4602
:1005b0005df8047b704700bf0028004000800041c8
:1005c00080b400af0d4b1b690c4a43f40043136128
:1005d0000a4b93f84f30dbb2084a43f00703dbb213
:1005e00082f84f30054b1b68044a43f48043136084
:1005f00000bfbd465df8047b704700bf008000412e
:1006000080b500affff795fefff754fffff7b0fe90
:10061000fff728fffff7d6fefff7fcfefff7d0ff3e
:10062000fff77efffff76eff044b1b69034a23f4bd
:10063000804313616420fff76bfefee700800041fa
:020000040000fa
:100640001d4b03b198471d4b03b19847eff310833f
:10065000b3fa83f35b09019372b6bff35f8f184b54
:1006600000221a700199174a136843f4700313604b
:10067000bff34f8fbff36f8f29b1114b01221a7057
:10068000bff35f8f62b600f0cdf800f0aff80e4b0d
:1006900023f07f030d4a93600d4b98470d4b03b138
:1006a00098470d4b03b1984700210846fff7a8ff74
:1006b0000a4b03b19847fee700000000000000006d
:1006c0007400002088ed00e00000000000ed00e074
:1006d00051070000000000000000000000000000c2
:020000040000fa
:1006e000780000200400000001000000000000006d
:1006f000500000201c0000000000000074000020da
:1007000001000000000000006c0000200400000058
:100710000000000000000020500000000000000069
:100720007000002004000000000000007c00002099
:1007300004000000010000000000000000000000b4
:1007400000000000666666666666666666666666e1
:020000040000fa
:100750000e4a38b5002313600d4a0e4c13600e4a42
:100760000e4d13600e4a13600e4a13600e4a536218
:1007700013610123936000f08ff800f08df8ac4214
:1007800000d338bd54f8043b9847f8e770000020c8
:100790000c0000206c020000080000207002000025
:0c07a000000000200400002010000020d9
:020000040000fa
:1007ac0010b5054c227832b9044b13b10448aff3a1
:1007bc0000800123237010bd5000002000000000b9
:1007cc000000000008b5034b1bb103490348aff30d
:1007dc00008008bd00000000540000200000000054
:020000040000fa
:1007ec0070b50b480b4d4ff6ff76016821b9436885
:1007fc0013b900f04af870bd83684268334000f1c9
:10080c000c0455f823302046984704eb8000ece7a5
:08081c00e00600006c0800007a
:020000040000fa
:10082400084b9a6822f001029a60db6813f0010f0a
:1008340006d1044b20225a609a6842f001029a6061
:08084400704700bf0060004195
:020000040000fa
:10084c0010b50023934206d113f0030018bf01200a
:0e085c0000eb930010bdc45ccc540133f2e7f6
:020000040000fa
:02086a00fee7a7
:020000040000fa
:10086c00810800004d080000930800009308000068
:04087c0093080000dd
:020000040000fa
:100880000a440023914201d10020704701f8013b46
:02089000f8e787
:020000040000fa
:04089200002070478b
:020000040000fa
:020896007047a9
:020000040000fa
:020898007047a7
:00000001FF
